{
  "contractName": "SupplyChain",
  "abi": [
    {
      "inputs": [],
      "stateMutability": "nonpayable",
      "type": "constructor"
    },
    {
      "anonymous": false,
      "inputs": [
        {
          "indexed": false,
          "internalType": "string",
          "name": "productCode",
          "type": "string"
        },
        {
          "indexed": false,
          "internalType": "address",
          "name": "manufacturer",
          "type": "address"
        }
      ],
      "name": "ProductCreated",
      "type": "event"
    },
    {
      "anonymous": false,
      "inputs": [
        {
          "indexed": false,
          "internalType": "string",
          "name": "productCode",
          "type": "string"
        },
        {
          "indexed": false,
          "internalType": "address",
          "name": "from",
          "type": "address"
        },
        {
          "indexed": false,
          "internalType": "address",
          "name": "to",
          "type": "address"
        },
        {
          "indexed": false,
          "internalType": "enum SupplyChain.State",
          "name": "newState",
          "type": "uint8"
        }
      ],
      "name": "ProductTransferred",
      "type": "event"
    },
    {
      "inputs": [],
      "name": "owner",
      "outputs": [
        {
          "internalType": "address",
          "name": "",
          "type": "address"
        }
      ],
      "stateMutability": "view",
      "type": "function",
      "constant": true
    },
    {
      "inputs": [
        {
          "internalType": "address",
          "name": "",
          "type": "address"
        }
      ],
      "name": "permissions",
      "outputs": [
        {
          "internalType": "enum SupplyChain.Role",
          "name": "",
          "type": "uint8"
        }
      ],
      "stateMutability": "view",
      "type": "function",
      "constant": true
    },
    {
      "inputs": [
        {
          "internalType": "string",
          "name": "",
          "type": "string"
        }
      ],
      "name": "products",
      "outputs": [
        {
          "internalType": "uint256",
          "name": "id",
          "type": "uint256"
        },
        {
          "internalType": "string",
          "name": "name",
          "type": "string"
        },
        {
          "internalType": "string",
          "name": "productCode",
          "type": "string"
        },
        {
          "internalType": "address",
          "name": "currentOwner",
          "type": "address"
        },
        {
          "internalType": "enum SupplyChain.Role",
          "name": "currentRole",
          "type": "uint8"
        },
        {
          "internalType": "enum SupplyChain.State",
          "name": "currentState",
          "type": "uint8"
        },
        {
          "internalType": "uint256",
          "name": "timestamp",
          "type": "uint256"
        }
      ],
      "stateMutability": "view",
      "type": "function",
      "constant": true
    },
    {
      "inputs": [
        {
          "internalType": "address",
          "name": "_account",
          "type": "address"
        },
        {
          "internalType": "enum SupplyChain.Role",
          "name": "_role",
          "type": "uint8"
        }
      ],
      "name": "assignRole",
      "outputs": [],
      "stateMutability": "nonpayable",
      "type": "function"
    },
    {
      "inputs": [
        {
          "internalType": "string",
          "name": "_name",
          "type": "string"
        },
        {
          "internalType": "string",
          "name": "_productCode",
          "type": "string"
        }
      ],
      "name": "manufactureProduct",
      "outputs": [],
      "stateMutability": "nonpayable",
      "type": "function"
    },
    {
      "inputs": [
        {
          "internalType": "string",
          "name": "_productCode",
          "type": "string"
        },
        {
          "internalType": "enum SupplyChain.State",
          "name": "_newState",
          "type": "uint8"
        }
      ],
      "name": "receiveProduct",
      "outputs": [],
      "stateMutability": "nonpayable",
      "type": "function"
    },
    {
      "inputs": [
        {
          "internalType": "string",
          "name": "_productCode",
          "type": "string"
        }
      ],
      "name": "getProduct",
      "outputs": [
        {
          "internalType": "string",
          "name": "name",
          "type": "string"
        },
        {
          "internalType": "address",
          "name": "currentOwner",
          "type": "address"
        },
        {
          "internalType": "enum SupplyChain.State",
          "name": "currentState",
          "type": "uint8"
        },
        {
          "internalType": "uint256",
          "name": "timestamp",
          "type": "uint256"
        }
      ],
      "stateMutability": "view",
      "type": "function",
      "constant": true
    }
  ],
  "bytecode": "0x608060405234801561001057600080fd5b5033600260006101000a81548173ffffffffffffffffffffffffffffffffffffffff021916908373ffffffffffffffffffffffffffffffffffffffff1602179055506119ac806100616000396000f3fe608060405234801561001057600080fd5b506004361061007d5760003560e01c806368111cce1161005b57806368111cce146101045780638da5cb5b14610137578063d61e140814610155578063f2b84071146101715761007d565b80630186a4231461008257806301e88208146100b8578063630a195b146100e8575b600080fd5b61009c60048036038101906100979190611158565b61018d565b6040516100af979695949392919061167a565b60405180910390f35b6100d260048036038101906100cd91906110f3565b61032f565b6040516100df91906114d7565b60405180910390f35b61010260048036038101906100fd919061111c565b61034f565b005b61011e60048036038101906101199190611158565b610470565b60405161012e949392919061156e565b60405180910390f35b61013f610763565b60405161014c91906114bc565b60405180910390f35b61016f600480360381019061016a91906111ed565b610789565b005b61018b60048036038101906101869190611199565b610b47565b005b6000818051602081018201805184825260208301602085012081835280955050505050506000915090508060000154908060010180546101cc90611847565b80601f01602080910402602001604051908101604052809291908181526020018280546101f890611847565b80156102455780601f1061021a57610100808354040283529160200191610245565b820191906000526020600020905b81548152906001019060200180831161022857829003601f168201915b50505050509080600201805461025a90611847565b80601f016020809104026020016040519081016040528092919081815260200182805461028690611847565b80156102d35780601f106102a8576101008083540402835291602001916102d3565b820191906000526020600020905b8154815290600101906020018083116102b657829003601f168201915b5050505050908060030160009054906101000a900473ffffffffffffffffffffffffffffffffffffffff16908060030160149054906101000a900460ff16908060030160159054906101000a900460ff16908060040154905087565b60016020528060005260406000206000915054906101000a900460ff1681565b600260009054906101000a900473ffffffffffffffffffffffffffffffffffffffff1673ffffffffffffffffffffffffffffffffffffffff163373ffffffffffffffffffffffffffffffffffffffff16146103df576040517f08c379a00000000000000000000000000000000000000000000000000000000081526004016103d69061165a565b60405180910390fd5b80600160008473ffffffffffffffffffffffffffffffffffffffff1673ffffffffffffffffffffffffffffffffffffffff16815260200190815260200160002060006101000a81548160ff02191690836003811115610467577f4e487b7100000000000000000000000000000000000000000000000000000000600052602160045260246000fd5b02179055505050565b606060008060008060008660405161048891906114a5565b90815260200160405180910390206040518060e0016040529081600082015481526020016001820180546104bb90611847565b80601f01602080910402602001604051908101604052809291908181526020018280546104e790611847565b80156105345780601f1061050957610100808354040283529160200191610534565b820191906000526020600020905b81548152906001019060200180831161051757829003601f168201915b5050505050815260200160028201805461054d90611847565b80601f016020809104026020016040519081016040528092919081815260200182805461057990611847565b80156105c65780601f1061059b576101008083540402835291602001916105c6565b820191906000526020600020905b8154815290600101906020018083116105a957829003601f168201915b505050505081526020016003820160009054906101000a900473ffffffffffffffffffffffffffffffffffffffff1673ffffffffffffffffffffffffffffffffffffffff1673ffffffffffffffffffffffffffffffffffffffff1681526020016003820160149054906101000a900460ff166003811115610670577f4e487b7100000000000000000000000000000000000000000000000000000000600052602160045260246000fd5b60038111156106a8577f4e487b7100000000000000000000000000000000000000000000000000000000600052602160045260246000fd5b81526020016003820160159054906101000a900460ff1660038111156106f7577f4e487b7100000000000000000000000000000000000000000000000000000000600052602160045260246000fd5b600381111561072f577f4e487b7100000000000000000000000000000000000000000000000000000000600052602160045260246000fd5b81526020016004820154815250509050806020015181606001518260a001518360c001519450945094509450509193509193565b600260009054906101000a900473ffffffffffffffffffffffffffffffffffffffff1681565b60018060038111156107c4577f4e487b7100000000000000000000000000000000000000000000000000000000600052602160045260246000fd5b600160003373ffffffffffffffffffffffffffffffffffffffff1673ffffffffffffffffffffffffffffffffffffffff16815260200190815260200160002060009054906101000a900460ff166003811115610849577f4e487b7100000000000000000000000000000000000000000000000000000000600052602160045260246000fd5b14610889576040517f08c379a00000000000000000000000000000000000000000000000000000000081526004016108809061163a565b60405180910390fd5b6000808360405161089a91906114a5565b908152602001604051809103902060000154146108ec576040517f08c379a00000000000000000000000000000000000000000000000000000000081526004016108e3906115fa565b60405180910390fd5b6040518060e001604052804281526020018481526020018381526020013373ffffffffffffffffffffffffffffffffffffffff1681526020016001600381111561095f577f4e487b7100000000000000000000000000000000000000000000000000000000600052602160045260246000fd5b81526020016000600381111561099e577f4e487b7100000000000000000000000000000000000000000000000000000000600052602160045260246000fd5b8152602001428152506000836040516109b791906114a5565b90815260200160405180910390206000820151816000015560208201518160010190805190602001906109eb929190610fa9565b506040820151816002019080519060200190610a08929190610fa9565b5060608201518160030160006101000a81548173ffffffffffffffffffffffffffffffffffffffff021916908373ffffffffffffffffffffffffffffffffffffffff16021790555060808201518160030160146101000a81548160ff02191690836003811115610aa1577f4e487b7100000000000000000000000000000000000000000000000000000000600052602160045260246000fd5b021790555060a08201518160030160156101000a81548160ff02191690836003811115610af7577f4e487b7100000000000000000000000000000000000000000000000000000000600052602160045260246000fd5b021790555060c082015181600401559050507f6276b46249f3ef9f8582903c6f0d43109febb82b3ec9f4dbd15662bb71ec9c7b8233604051610b3a9291906114f2565b60405180910390a1505050565b60008083604051610b5891906114a5565b90815260200160405180910390209050600081600001541415610bb0576040517f08c379a0000000000000000000000000000000000000000000000000000000008152600401610ba7906115ba565b60405180910390fd5b60026003811115610bea577f4e487b7100000000000000000000000000000000000000000000000000000000600052602160045260246000fd5b826003811115610c23577f4e487b7100000000000000000000000000000000000000000000000000000000600052602160045260246000fd5b1415610d2d5760026003811115610c63577f4e487b7100000000000000000000000000000000000000000000000000000000600052602160045260246000fd5b600160003373ffffffffffffffffffffffffffffffffffffffff1673ffffffffffffffffffffffffffffffffffffffff16815260200190815260200160002060009054906101000a900460ff166003811115610ce8577f4e487b7100000000000000000000000000000000000000000000000000000000600052602160045260246000fd5b14610d28576040517f08c379a0000000000000000000000000000000000000000000000000000000008152600401610d1f9061161a565b60405180910390fd5b610ea5565b600380811115610d66577f4e487b7100000000000000000000000000000000000000000000000000000000600052602160045260246000fd5b826003811115610d9f577f4e487b7100000000000000000000000000000000000000000000000000000000600052602160045260246000fd5b1415610ea457600380811115610dde577f4e487b7100000000000000000000000000000000000000000000000000000000600052602160045260246000fd5b600160003373ffffffffffffffffffffffffffffffffffffffff1673ffffffffffffffffffffffffffffffffffffffff16815260200190815260200160002060009054906101000a900460ff166003811115610e63577f4e487b7100000000000000000000000000000000000000000000000000000000600052602160045260246000fd5b14610ea3576040517f08c379a0000000000000000000000000000000000000000000000000000000008152600401610e9a906115da565b60405180910390fd5b5b5b338160030160006101000a81548173ffffffffffffffffffffffffffffffffffffffff021916908373ffffffffffffffffffffffffffffffffffffffff160217905550818160030160156101000a81548160ff02191690836003811115610f35577f4e487b7100000000000000000000000000000000000000000000000000000000600052602160045260246000fd5b02179055504281600401819055507fba6d1ed8103357da6a1c6eb33d9d7ebc9f1268e95d925928b716cbdb8d533912838260030160009054906101000a900473ffffffffffffffffffffffffffffffffffffffff163385604051610f9c9493929190611522565b60405180910390a1505050565b828054610fb590611847565b90600052602060002090601f016020900481019282610fd7576000855561101e565b82601f10610ff057805160ff191683800117855561101e565b8280016001018555821561101e579182015b8281111561101d578251825591602001919060010190611002565b5b50905061102b919061102f565b5090565b5b80821115611048576000816000905550600101611030565b5090565b600061105f61105a84611728565b6116f7565b90508281526020810184848401111561107757600080fd5b611082848285611805565b509392505050565b6000813590506110998161193f565b92915050565b6000813590506110ae81611956565b92915050565b6000813590506110c381611966565b92915050565b600082601f8301126110da57600080fd5b81356110ea84826020860161104c565b91505092915050565b60006020828403121561110557600080fd5b60006111138482850161108a565b91505092915050565b6000806040838503121561112f57600080fd5b600061113d8582860161108a565b925050602061114e8582860161109f565b9150509250929050565b60006020828403121561116a57600080fd5b600082013567ffffffffffffffff81111561118457600080fd5b611190848285016110c9565b91505092915050565b600080604083850312156111ac57600080fd5b600083013567ffffffffffffffff8111156111c657600080fd5b6111d2858286016110c9565b92505060206111e3858286016110b4565b9150509250929050565b6000806040838503121561120057600080fd5b600083013567ffffffffffffffff81111561121a57600080fd5b611226858286016110c9565b925050602083013567ffffffffffffffff81111561124357600080fd5b61124f858286016110c9565b9150509250929050565b6112628161177f565b82525050565b611271816117e1565b82525050565b611280816117f3565b82525050565b600061129182611758565b61129b8185611763565b93506112ab818560208601611814565b6112b481611906565b840191505092915050565b60006112ca82611758565b6112d48185611774565b93506112e4818560208601611814565b80840191505092915050565b60006112fd601683611763565b91507f50726f6475637420646f6573206e6f74206578697374000000000000000000006000830152602082019050919050565b600061133d601283611763565b91507f4d75737420626520612052657461696c657200000000000000000000000000006000830152602082019050919050565b600061137d601b83611763565b91507f50726f6475637420636f646520616c72656164792065786973747300000000006000830152602082019050919050565b60006113bd601583611763565b91507f4d7573742062652061204469737472696275746f7200000000000000000000006000830152602082019050919050565b60006113fd601c83611763565b91507f556e617574686f72697a65643a20496e636f727265637420726f6c65000000006000830152602082019050919050565b600061143d602483611763565b91507f4f6e6c7920636f6e7472616374206f776e65722063616e20706572666f726d2060008301527f74686973000000000000000000000000000000000000000000000000000000006020830152604082019050919050565b61149f816117d7565b82525050565b60006114b182846112bf565b915081905092915050565b60006020820190506114d16000830184611259565b92915050565b60006020820190506114ec6000830184611268565b92915050565b6000604082019050818103600083015261150c8185611286565b905061151b6020830184611259565b9392505050565b6000608082019050818103600083015261153c8187611286565b905061154b6020830186611259565b6115586040830185611259565b6115656060830184611277565b95945050505050565b600060808201905081810360008301526115888187611286565b90506115976020830186611259565b6115a46040830185611277565b6115b16060830184611496565b95945050505050565b600060208201905081810360008301526115d3816112f0565b9050919050565b600060208201905081810360008301526115f381611330565b9050919050565b6000602082019050818103600083015261161381611370565b9050919050565b60006020820190508181036000830152611633816113b0565b9050919050565b60006020820190508181036000830152611653816113f0565b9050919050565b6000602082019050818103600083015261167381611430565b9050919050565b600060e08201905061168f600083018a611496565b81810360208301526116a18189611286565b905081810360408301526116b58188611286565b90506116c46060830187611259565b6116d16080830186611268565b6116de60a0830185611277565b6116eb60c0830184611496565b98975050505050505050565b6000604051905081810181811067ffffffffffffffff8211171561171e5761171d6118d7565b5b8060405250919050565b600067ffffffffffffffff821115611743576117426118d7565b5b601f19601f8301169050602081019050919050565b600081519050919050565b600082825260208201905092915050565b600081905092915050565b600061178a826117b7565b9050919050565b600081905061179f82611917565b919050565b60008190506117b28261192b565b919050565b600073ffffffffffffffffffffffffffffffffffffffff82169050919050565b6000819050919050565b60006117ec82611791565b9050919050565b60006117fe826117a4565b9050919050565b82818337600083830152505050565b60005b83811015611832578082015181840152602081019050611817565b83811115611841576000848401525b50505050565b6000600282049050600182168061185f57607f821691505b60208210811415611873576118726118a8565b5b50919050565b7f4e487b7100000000000000000000000000000000000000000000000000000000600052602160045260246000fd5b7f4e487b7100000000000000000000000000000000000000000000000000000000600052602260045260246000fd5b7f4e487b7100000000000000000000000000000000000000000000000000000000600052604160045260246000fd5b6000601f19601f8301169050919050565b6004811061192857611927611879565b5b50565b6004811061193c5761193b611879565b5b50565b6119488161177f565b811461195357600080fd5b50565b6004811061196357600080fd5b50565b6004811061197357600080fd5b5056fea26469706673582212204cb0b11d7e51dff121222303d5ab354dab461ebf8cf1a52c94315a643bf8336164736f6c63430008000033",
  "immutableReferences": {},
  "source": "// SPDX-License-Identifier: MIT\r\npragma solidity ^0.8.0;\r\n\r\ncontract SupplyChain {\r\n\r\n    // Roles and Entities\r\n    enum Role { None, Manufacturer, Distributor, Retailer }\r\n    enum State { Manufactured, Shipped, ReceivedByDistributor, ReceivedByRetailer }\r\n\r\n    struct Product {\r\n        uint256 id;\r\n        string name;\r\n        string productCode; // Unique ID (QR code/Serial)\r\n        address currentOwner;\r\n        Role currentRole;\r\n        State currentState;\r\n        uint256 timestamp;\r\n    }\r\n\r\n    mapping(string => Product) public products;\r\n    mapping(address => Role) public permissions;\r\n    address public owner;\r\n\r\n    event ProductCreated(string productCode, address manufacturer);\r\n    event ProductTransferred(string productCode, address from, address to, State newState);\r\n\r\n    modifier onlyOwner() {\r\n        require(msg.sender == owner, \"Only contract owner can perform this\");\r\n        _;\r\n    }\r\n\r\n    modifier onlyRole(Role _role) {\r\n        require(permissions[msg.sender] == _role, \"Unauthorized: Incorrect role\");\r\n        _;\r\n    }\r\n\r\n    constructor() {\r\n        owner = msg.sender;\r\n    }\r\n\r\n    // Assign roles to addresses (done by the contract deployer)\r\n    function assignRole(address _account, Role _role) public onlyOwner {\r\n        permissions[_account] = _role;\r\n    }\r\n\r\n    // 1. Manufacturer creates the product\r\n    function manufactureProduct(string memory _name, string memory _productCode) \r\n        public \r\n        onlyRole(Role.Manufacturer) \r\n    {\r\n        require(products[_productCode].id == 0, \"Product code already exists\");\r\n\r\n        products[_productCode] = Product({\r\n            id: block.timestamp, // Using timestamp as a simple ID\r\n            name: _name,\r\n            productCode: _productCode,\r\n            currentOwner: msg.sender,\r\n            currentRole: Role.Manufacturer,\r\n            currentState: State.Manufactured,\r\n            timestamp: block.timestamp\r\n        });\r\n\r\n        emit ProductCreated(_productCode, msg.sender);\r\n    }\r\n\r\n    // 2. Transfer to Distributor or Retailer\r\n    // In this logic, the receiver \"verifies\" by calling the receive function\r\n    function receiveProduct(string memory _productCode, State _newState) public {\r\n        Product storage product = products[_productCode];\r\n        require(product.id != 0, \"Product does not exist\");\r\n        \r\n        // Logical flow: Manufacturer -> Distributor -> Retailer\r\n        if (_newState == State.ReceivedByDistributor) {\r\n            require(permissions[msg.sender] == Role.Distributor, \"Must be a Distributor\");\r\n        } else if (_newState == State.ReceivedByRetailer) {\r\n            require(permissions[msg.sender] == Role.Retailer, \"Must be a Retailer\");\r\n        }\r\n\r\n        product.currentOwner = msg.sender;\r\n        product.currentState = _newState;\r\n        product.timestamp = block.timestamp;\r\n\r\n        emit ProductTransferred(_productCode, product.currentOwner, msg.sender, _newState);\r\n    }\r\n\r\n    // 3. Fetch Product Details for verification\r\n    function getProduct(string memory _productCode) public view returns (\r\n        string memory name,\r\n        address currentOwner,\r\n        State currentState,\r\n        uint256 timestamp\r\n    ) {\r\n        Product memory p = products[_productCode];\r\n        return (p.name, p.currentOwner, p.currentState, p.timestamp);\r\n    }\r\n}",
  "sourcePath": "C:\\Users\\Lenovo 10GEN\\Downloads\\Supply-chain-transparency-main\\Supply-chain-transparency-main\\contracts\\SupplyChain.sol",
  "compiler": {
    "name": "solc",
    "version": "0.8.0+commit.c7dfd78e.Emscripten.clang"
  },
  "schemaVersion": "3.4.16",
  "updatedAt": "2026-01-27T10:28:33.181Z",
  "networkType": "ethereum",
  "devdoc": {
    "kind": "dev",
    "methods": {},
    "version": 1
  },
  "userdoc": {
    "kind": "user",
    "methods": {},
    "version": 1
  }
}